{
  "contractName": "HourlyPay",
  "abi": [
    {
      "constant": true,
      "inputs": [],
      "name": "paydayFrequencyInDays",
      "outputs": [
        {
          "name": "",
          "type": "uint8"
        }
      ],
      "payable": false,
      "stateMutability": "view",
      "type": "function"
    },
    {
      "constant": true,
      "inputs": [],
      "name": "hired",
      "outputs": [
        {
          "name": "",
          "type": "bool"
        }
      ],
      "payable": false,
      "stateMutability": "view",
      "type": "function"
    },
    {
      "constant": true,
      "inputs": [],
      "name": "employeeAddress",
      "outputs": [
        {
          "name": "",
          "type": "address"
        }
      ],
      "payable": false,
      "stateMutability": "view",
      "type": "function"
    },
    {
      "constant": true,
      "inputs": [],
      "name": "workedTodayInSeconds",
      "outputs": [
        {
          "name": "",
          "type": "uint256"
        }
      ],
      "payable": false,
      "stateMutability": "view",
      "type": "function"
    },
    {
      "constant": true,
      "inputs": [],
      "name": "dailyHourLimit",
      "outputs": [
        {
          "name": "",
          "type": "uint8"
        }
      ],
      "payable": false,
      "stateMutability": "view",
      "type": "function"
    },
    {
      "constant": true,
      "inputs": [],
      "name": "lastPaydayTS",
      "outputs": [
        {
          "name": "",
          "type": "uint256"
        }
      ],
      "payable": false,
      "stateMutability": "view",
      "type": "function"
    },
    {
      "constant": true,
      "inputs": [],
      "name": "owner",
      "outputs": [
        {
          "name": "",
          "type": "address"
        }
      ],
      "payable": false,
      "stateMutability": "view",
      "type": "function"
    },
    {
      "constant": true,
      "inputs": [],
      "name": "earnings",
      "outputs": [
        {
          "name": "",
          "type": "uint256"
        }
      ],
      "payable": false,
      "stateMutability": "view",
      "type": "function"
    },
    {
      "constant": true,
      "inputs": [],
      "name": "contractDurationInDays",
      "outputs": [
        {
          "name": "",
          "type": "uint16"
        }
      ],
      "payable": false,
      "stateMutability": "view",
      "type": "function"
    },
    {
      "constant": true,
      "inputs": [],
      "name": "working",
      "outputs": [
        {
          "name": "",
          "type": "bool"
        }
      ],
      "payable": false,
      "stateMutability": "view",
      "type": "function"
    },
    {
      "constant": true,
      "inputs": [],
      "name": "ratePerHourInWei",
      "outputs": [
        {
          "name": "",
          "type": "uint256"
        }
      ],
      "payable": false,
      "stateMutability": "view",
      "type": "function"
    },
    {
      "constant": true,
      "inputs": [],
      "name": "startedWorkTS",
      "outputs": [
        {
          "name": "",
          "type": "uint256"
        }
      ],
      "payable": false,
      "stateMutability": "view",
      "type": "function"
    },
    {
      "constant": true,
      "inputs": [],
      "name": "beginTimeTS",
      "outputs": [
        {
          "name": "",
          "type": "uint256"
        }
      ],
      "payable": false,
      "stateMutability": "view",
      "type": "function"
    },
    {
      "constant": true,
      "inputs": [],
      "name": "currentDayTS",
      "outputs": [
        {
          "name": "",
          "type": "uint256"
        }
      ],
      "payable": false,
      "stateMutability": "view",
      "type": "function"
    },
    {
      "inputs": [],
      "payable": false,
      "stateMutability": "nonpayable",
      "type": "constructor"
    },
    {
      "payable": true,
      "stateMutability": "payable",
      "type": "fallback"
    },
    {
      "anonymous": false,
      "inputs": [
        {
          "indexed": false,
          "name": "sender",
          "type": "address"
        },
        {
          "indexed": false,
          "name": "amount",
          "type": "uint256"
        }
      ],
      "name": "GotFunds",
      "type": "event"
    },
    {
      "anonymous": false,
      "inputs": [
        {
          "indexed": false,
          "name": "contractDurationInDays",
          "type": "uint16"
        }
      ],
      "name": "ContractDurationInDaysChanged",
      "type": "event"
    },
    {
      "anonymous": false,
      "inputs": [
        {
          "indexed": false,
          "name": "dailyHourLimit",
          "type": "uint8"
        }
      ],
      "name": "DailyHourLimitChanged",
      "type": "event"
    },
    {
      "anonymous": false,
      "inputs": [
        {
          "indexed": false,
          "name": "paydayFrequencyInDays",
          "type": "uint32"
        }
      ],
      "name": "PaydayFrequencyInDaysChanged",
      "type": "event"
    },
    {
      "anonymous": false,
      "inputs": [
        {
          "indexed": false,
          "name": "beginTimeTS",
          "type": "uint256"
        }
      ],
      "name": "BeginTimeTSChanged",
      "type": "event"
    },
    {
      "anonymous": false,
      "inputs": [
        {
          "indexed": false,
          "name": "employeeAddress",
          "type": "address"
        },
        {
          "indexed": false,
          "name": "ratePerHourInWei",
          "type": "uint256"
        },
        {
          "indexed": false,
          "name": "hiredTS",
          "type": "uint256"
        }
      ],
      "name": "Hired",
      "type": "event"
    },
    {
      "anonymous": false,
      "inputs": [
        {
          "indexed": false,
          "name": "currentDayTS",
          "type": "uint256"
        },
        {
          "indexed": false,
          "name": "contractDaysLeft",
          "type": "uint16"
        }
      ],
      "name": "NewDay",
      "type": "event"
    },
    {
      "anonymous": false,
      "inputs": [
        {
          "indexed": false,
          "name": "startedWorkTS",
          "type": "uint256"
        },
        {
          "indexed": false,
          "name": "workedTodayInSeconds",
          "type": "uint256"
        },
        {
          "indexed": false,
          "name": "comment",
          "type": "string"
        }
      ],
      "name": "StartedWork",
      "type": "event"
    },
    {
      "anonymous": false,
      "inputs": [
        {
          "indexed": false,
          "name": "stoppedWorkTS",
          "type": "uint256"
        },
        {
          "indexed": false,
          "name": "workedInSeconds",
          "type": "uint256"
        },
        {
          "indexed": false,
          "name": "earned",
          "type": "uint256"
        }
      ],
      "name": "StoppedWork",
      "type": "event"
    },
    {
      "anonymous": false,
      "inputs": [
        {
          "indexed": false,
          "name": "amount",
          "type": "uint256"
        },
        {
          "indexed": false,
          "name": "employeeAddress",
          "type": "address"
        },
        {
          "indexed": false,
          "name": "withdrawalTS",
          "type": "uint256"
        }
      ],
      "name": "Withdrawal",
      "type": "event"
    },
    {
      "anonymous": false,
      "inputs": [
        {
          "indexed": false,
          "name": "employeeAddress",
          "type": "address"
        },
        {
          "indexed": false,
          "name": "firedTS",
          "type": "uint256"
        }
      ],
      "name": "Fired",
      "type": "event"
    },
    {
      "anonymous": false,
      "inputs": [
        {
          "indexed": false,
          "name": "amount",
          "type": "uint256"
        },
        {
          "indexed": false,
          "name": "whoInitiatedRefund",
          "type": "address"
        },
        {
          "indexed": false,
          "name": "refundTS",
          "type": "uint256"
        }
      ],
      "name": "Refunded",
      "type": "event"
    },
    {
      "anonymous": false,
      "inputs": [
        {
          "indexed": false,
          "name": "amount",
          "type": "uint256"
        },
        {
          "indexed": false,
          "name": "clientWithdrawalTS",
          "type": "uint256"
        }
      ],
      "name": "ClientWithdrawal",
      "type": "event"
    },
    {
      "constant": false,
      "inputs": [
        {
          "name": "newContractDurationInDays",
          "type": "uint16"
        }
      ],
      "name": "setContractDurationInDays",
      "outputs": [],
      "payable": false,
      "stateMutability": "nonpayable",
      "type": "function"
    },
    {
      "constant": false,
      "inputs": [
        {
          "name": "newDailyHourLimit",
          "type": "uint8"
        }
      ],
      "name": "setDailyHourLimit",
      "outputs": [],
      "payable": false,
      "stateMutability": "nonpayable",
      "type": "function"
    },
    {
      "constant": false,
      "inputs": [
        {
          "name": "newPaydayFrequencyInDays",
          "type": "uint8"
        }
      ],
      "name": "setPaydayFrequencyInDays",
      "outputs": [],
      "payable": false,
      "stateMutability": "nonpayable",
      "type": "function"
    },
    {
      "constant": false,
      "inputs": [
        {
          "name": "newBeginTimeTS",
          "type": "uint256"
        }
      ],
      "name": "setBeginTimeTS",
      "outputs": [],
      "payable": false,
      "stateMutability": "nonpayable",
      "type": "function"
    },
    {
      "constant": true,
      "inputs": [],
      "name": "getWorkSecondsInProgress",
      "outputs": [
        {
          "name": "",
          "type": "uint256"
        }
      ],
      "payable": false,
      "stateMutability": "view",
      "type": "function"
    },
    {
      "constant": true,
      "inputs": [],
      "name": "isOvertime",
      "outputs": [
        {
          "name": "",
          "type": "bool"
        }
      ],
      "payable": false,
      "stateMutability": "view",
      "type": "function"
    },
    {
      "constant": true,
      "inputs": [],
      "name": "hasEnoughFundsToStart",
      "outputs": [
        {
          "name": "",
          "type": "bool"
        }
      ],
      "payable": false,
      "stateMutability": "view",
      "type": "function"
    },
    {
      "constant": true,
      "inputs": [],
      "name": "isNewDay",
      "outputs": [
        {
          "name": "",
          "type": "bool"
        }
      ],
      "payable": false,
      "stateMutability": "view",
      "type": "function"
    },
    {
      "constant": true,
      "inputs": [],
      "name": "canStartWork",
      "outputs": [
        {
          "name": "",
          "type": "bool"
        }
      ],
      "payable": false,
      "stateMutability": "view",
      "type": "function"
    },
    {
      "constant": true,
      "inputs": [],
      "name": "canStopWork",
      "outputs": [
        {
          "name": "",
          "type": "bool"
        }
      ],
      "payable": false,
      "stateMutability": "view",
      "type": "function"
    },
    {
      "constant": true,
      "inputs": [],
      "name": "currentTime",
      "outputs": [
        {
          "name": "",
          "type": "uint256"
        }
      ],
      "payable": false,
      "stateMutability": "view",
      "type": "function"
    },
    {
      "constant": true,
      "inputs": [],
      "name": "getBalance",
      "outputs": [
        {
          "name": "",
          "type": "uint256"
        }
      ],
      "payable": false,
      "stateMutability": "view",
      "type": "function"
    },
    {
      "constant": false,
      "inputs": [],
      "name": "releaseOwnership",
      "outputs": [],
      "payable": false,
      "stateMutability": "nonpayable",
      "type": "function"
    },
    {
      "constant": false,
      "inputs": [
        {
          "name": "newEmployeeAddress",
          "type": "address"
        },
        {
          "name": "newRatePerHourInWei",
          "type": "uint256"
        }
      ],
      "name": "hire",
      "outputs": [],
      "payable": false,
      "stateMutability": "nonpayable",
      "type": "function"
    },
    {
      "constant": false,
      "inputs": [
        {
          "name": "comment",
          "type": "string"
        }
      ],
      "name": "startWork",
      "outputs": [],
      "payable": false,
      "stateMutability": "nonpayable",
      "type": "function"
    },
    {
      "constant": false,
      "inputs": [],
      "name": "stopWork",
      "outputs": [],
      "payable": false,
      "stateMutability": "nonpayable",
      "type": "function"
    },
    {
      "constant": false,
      "inputs": [],
      "name": "withdraw",
      "outputs": [],
      "payable": false,
      "stateMutability": "nonpayable",
      "type": "function"
    },
    {
      "constant": false,
      "inputs": [],
      "name": "fire",
      "outputs": [],
      "payable": false,
      "stateMutability": "nonpayable",
      "type": "function"
    },
    {
      "constant": false,
      "inputs": [],
      "name": "refundAll",
      "outputs": [],
      "payable": false,
      "stateMutability": "nonpayable",
      "type": "function"
    },
    {
      "constant": false,
      "inputs": [
        {
          "name": "amount",
          "type": "uint256"
        }
      ],
      "name": "refund",
      "outputs": [],
      "payable": false,
      "stateMutability": "nonpayable",
      "type": "function"
    },
    {
      "constant": false,
      "inputs": [],
      "name": "clientWithdrawAll",
      "outputs": [],
      "payable": false,
      "stateMutability": "nonpayable",
      "type": "function"
    },
    {
      "constant": false,
      "inputs": [
        {
          "name": "amount",
          "type": "uint256"
        }
      ],
      "name": "clientWithdraw",
      "outputs": [],
      "payable": false,
      "stateMutability": "nonpayable",
      "type": "function"
    }
  ],
  "bytecode": "0x60806040526000600160006101000a81548173ffffffffffffffffffffffffffffffffffffffff021916908373ffffffffffffffffffffffffffffffffffffffff16021790555060006004556000600560006101000a81548160ff0219169083151502179055506000600560016101000a81548160ff021916908315150217905550600060075561016d600a60006101000a81548161ffff021916908361ffff1602179055506008600a60026101000a81548160ff021916908360ff1602179055506003600a60036101000a81548160ff021916908360ff1602179055503480156100e957600080fd5b50336000806101000a81548173ffffffffffffffffffffffffffffffffffffffff021916908373ffffffffffffffffffffffffffffffffffffffff160217905550426002819055506002546008819055506002546009819055506120fd806101526000396000f3006080604052600436106101c2576000357c0100000000000000000000000000000000000000000000000000000000900463ffffffff168063024747181461022f578063096d740b1461026057806312065fe01461027757806314e8093f146102a257806322bd6d3f146102b957806326c5c154146102e85780632753f2541461033f578063278ecde11461036a5780632cdb02131461039757806338e771ab146103c85780633a3cd062146103df5780633ccfd60b1461040c578063457094cc1461042357806353efb13f1461043a57806354790b7d1461046b5780636fc141da1461049a57806373b51d38146104c55780638da5cb5b146105005780639057bc481461055757806395d643a8146105865780639e254262146105b15780639f08a68c146105e4578063a90a642714610613578063ab79fd2614610643578063acb93f3614610670578063b545252c1461069b578063bbfbaaf8146106ca578063c268e777146106f5578063cc3e378e14610725578063cc9c093614610754578063d18e81b31461077f578063d6820709146107aa578063d85633ec146107d5578063e6aac98f146107ec578063f0fdb32f14610817578063f23ba8e614610846575b7f605138e0ddb72cd85fdd712f7f50d9f316408dc3664a022d6656de66229cb3cb3334604051808373ffffffffffffffffffffffffffffffffffffffff1673ffffffffffffffffffffffffffffffffffffffff1681526020018281526020019250505060405180910390a1005b34801561023b57600080fd5b50610244610893565b604051808260ff1660ff16815260200191505060405180910390f35b34801561026c57600080fd5b506102756108a6565b005b34801561028357600080fd5b5061028c61090c565b6040518082815260200191505060405180910390f35b3480156102ae57600080fd5b506102b761092b565b005b3480156102c557600080fd5b506102ce610a99565b604051808215151515815260200191505060405180910390f35b3480156102f457600080fd5b506102fd610aac565b604051808273ffffffffffffffffffffffffffffffffffffffff1673ffffffffffffffffffffffffffffffffffffffff16815260200191505060405180910390f35b34801561034b57600080fd5b50610354610ad2565b6040518082815260200191505060405180910390f35b34801561037657600080fd5b5061039560048036038101908080359060200190929190505050610ad8565b005b3480156103a357600080fd5b506103ac610c43565b604051808260ff1660ff16815260200191505060405180910390f35b3480156103d457600080fd5b506103dd610c56565b005b3480156103eb57600080fd5b5061040a60048036038101908080359060200190929190505050610dc1565b005b34801561041857600080fd5b50610421610f5d565b005b34801561042f57600080fd5b50610438611159565b005b34801561044657600080fd5b50610469600480360381019080803561ffff16906020019092919050505061127c565b005b34801561047757600080fd5b506104806113c3565b604051808215151515815260200191505060405180910390f35b3480156104a657600080fd5b506104af611403565b6040518082815260200191505060405180910390f35b3480156104d157600080fd5b506104fe600480360381019080803590602001908201803590602001919091929391929390505050611409565b005b34801561050c57600080fd5b50610515611639565b604051808273ffffffffffffffffffffffffffffffffffffffff1673ffffffffffffffffffffffffffffffffffffffff16815260200191505060405180910390f35b34801561056357600080fd5b5061056c61165e565b604051808215151515815260200191505060405180910390f35b34801561059257600080fd5b5061059b61169a565b6040518082815260200191505060405180910390f35b3480156105bd57600080fd5b506105c66116a0565b604051808261ffff1661ffff16815260200191505060405180910390f35b3480156105f057600080fd5b506105f96116b4565b604051808215151515815260200191505060405180910390f35b34801561061f57600080fd5b50610641600480360381019080803560ff1690602001909291905050506116c7565b005b34801561064f57600080fd5b5061066e6004803603810190808035906020019092919050505061180d565b005b34801561067c57600080fd5b50610685611926565b6040518082815260200191505060405180910390f35b3480156106a757600080fd5b506106b061192c565b604051808215151515815260200191505060405180910390f35b3480156106d657600080fd5b506106df61193d565b6040518082815260200191505060405180910390f35b34801561070157600080fd5b50610723600480360381019080803560ff169060200190929190505050611969565b005b34801561073157600080fd5b5061073a611aaa565b604051808215151515815260200191505060405180910390f35b34801561076057600080fd5b50610769611b37565b6040518082815260200191505060405180910390f35b34801561078b57600080fd5b50610794611b3d565b6040518082815260200191505060405180910390f35b3480156107b657600080fd5b506107bf611b45565b6040518082815260200191505060405180910390f35b3480156107e157600080fd5b506107ea611b4b565b005b3480156107f857600080fd5b50610801611be9565b6040518082815260200191505060405180910390f35b34801561082357600080fd5b5061082c611bef565b604051808215151515815260200191505060405180910390f35b34801561085257600080fd5b50610891600480360381019080803573ffffffffffffffffffffffffffffffffffffffff16906020019092919080359060200190929190505050611c9f565b005b600a60039054906101000a900460ff1681565b600160009054906101000a900473ffffffffffffffffffffffffffffffffffffffff1673ffffffffffffffffffffffffffffffffffffffff163373ffffffffffffffffffffffffffffffffffffffff1614151561090257600080fd5b61090a611ec1565b565b60003073ffffffffffffffffffffffffffffffffffffffff1631905090565b60008060009054906101000a900473ffffffffffffffffffffffffffffffffffffffff1673ffffffffffffffffffffffffffffffffffffffff163373ffffffffffffffffffffffffffffffffffffffff1614151561098857600080fd5b60001515600560009054906101000a900460ff1615151415156109aa57600080fd5b6004543073ffffffffffffffffffffffffffffffffffffffff16311115156109d157600080fd5b6004543073ffffffffffffffffffffffffffffffffffffffff16310390506000809054906101000a900473ffffffffffffffffffffffffffffffffffffffff1673ffffffffffffffffffffffffffffffffffffffff166108fc829081150290604051600060405180830381858888f19350505050158015610a56573d6000803e3d6000fd5b507f88df15be06849bfaaeece2b853a4919c7035479d2f80a3981a00c84e284439888142604051808381526020018281526020019250505060405180910390a150565b600560009054906101000a900460ff1681565b600160009054906101000a900473ffffffffffffffffffffffffffffffffffffffff1681565b60075481565b600160009054906101000a900473ffffffffffffffffffffffffffffffffffffffff1673ffffffffffffffffffffffffffffffffffffffff163373ffffffffffffffffffffffffffffffffffffffff161480610b8057506000809054906101000a900473ffffffffffffffffffffffffffffffffffffffff1673ffffffffffffffffffffffffffffffffffffffff163373ffffffffffffffffffffffffffffffffffffffff16145b1515610b8b57600080fd5b60001515600560019054906101000a900460ff161515141515610bad57600080fd5b60045481101515610bbd57600080fd5b806004600082825403925050819055507f7ca5472b7ea78c2c0141c5a12ee6d170cf4ce8ed06be3d22c8252ddfc7a6a2c4813342604051808481526020018373ffffffffffffffffffffffffffffffffffffffff1673ffffffffffffffffffffffffffffffffffffffff168152602001828152602001935050505060405180910390a150565b600a60029054906101000a900460ff1681565b6000600160009054906101000a900473ffffffffffffffffffffffffffffffffffffffff1673ffffffffffffffffffffffffffffffffffffffff163373ffffffffffffffffffffffffffffffffffffffff161480610d0057506000809054906101000a900473ffffffffffffffffffffffffffffffffffffffff1673ffffffffffffffffffffffffffffffffffffffff163373ffffffffffffffffffffffffffffffffffffffff16145b1515610d0b57600080fd5b60001515600560019054906101000a900460ff161515141515610d2d57600080fd5b6000600454111515610d3e57600080fd5b600454905060006004819055507f7ca5472b7ea78c2c0141c5a12ee6d170cf4ce8ed06be3d22c8252ddfc7a6a2c4813342604051808481526020018373ffffffffffffffffffffffffffffffffffffffff1673ffffffffffffffffffffffffffffffffffffffff168152602001828152602001935050505060405180910390a150565b6000809054906101000a900473ffffffffffffffffffffffffffffffffffffffff1673ffffffffffffffffffffffffffffffffffffffff163373ffffffffffffffffffffffffffffffffffffffff16141515610e1c57600080fd5b60001515600560009054906101000a900460ff161515141515610e3e57600080fd5b6004543073ffffffffffffffffffffffffffffffffffffffff1631111515610e6557600080fd5b3073ffffffffffffffffffffffffffffffffffffffff163181101515610e8a57600080fd5b600454813073ffffffffffffffffffffffffffffffffffffffff163103111515610eb357600080fd5b6000809054906101000a900473ffffffffffffffffffffffffffffffffffffffff1673ffffffffffffffffffffffffffffffffffffffff166108fc829081150290604051600060405180830381858888f19350505050158015610f1a573d6000803e3d6000fd5b507f88df15be06849bfaaeece2b853a4919c7035479d2f80a3981a00c84e284439888142604051808381526020018281526020019250505060405180910390a150565b6000600160009054906101000a900473ffffffffffffffffffffffffffffffffffffffff1673ffffffffffffffffffffffffffffffffffffffff163373ffffffffffffffffffffffffffffffffffffffff16141515610fbb57600080fd5b60001515600560019054906101000a900460ff161515141515610fdd57600080fd5b6000600454111515610fee57600080fd5b3073ffffffffffffffffffffffffffffffffffffffff16316004541115151561101657600080fd5b62015180600a60039054906101000a900460ff1660ff160262ffffff16600954420311151561104457600080fd5b4260098190555060045490506000600481905550600160009054906101000a900473ffffffffffffffffffffffffffffffffffffffff1673ffffffffffffffffffffffffffffffffffffffff166108fc829081150290604051600060405180830381858888f193505050501580156110c0573d6000803e3d6000fd5b507f37e8063b72a944a76de602f32b82fd8c2a1c6f99564c727ffaf913c7762cd42081600160009054906101000a900473ffffffffffffffffffffffffffffffffffffffff1642604051808481526020018373ffffffffffffffffffffffffffffffffffffffff1673ffffffffffffffffffffffffffffffffffffffff168152602001828152602001935050505060405180910390a150565b6000809054906101000a900473ffffffffffffffffffffffffffffffffffffffff1673ffffffffffffffffffffffffffffffffffffffff163373ffffffffffffffffffffffffffffffffffffffff161415156111b457600080fd5b600560019054906101000a900460ff16156111d2576111d1611ec1565b5b6000600560006101000a81548160ff0219169083151502179055507f6319084570467930e4ee205ecc70d1c3c522058f4594d6303b50710fc88cb89f600160009054906101000a900473ffffffffffffffffffffffffffffffffffffffff1642604051808373ffffffffffffffffffffffffffffffffffffffff1673ffffffffffffffffffffffffffffffffffffffff1681526020018281526020019250505060405180910390a1565b6000809054906101000a900473ffffffffffffffffffffffffffffffffffffffff1673ffffffffffffffffffffffffffffffffffffffff163373ffffffffffffffffffffffffffffffffffffffff161415156112d757600080fd5b6000600160009054906101000a900473ffffffffffffffffffffffffffffffffffffffff1673ffffffffffffffffffffffffffffffffffffffff1614151561131e57600080fd5b60001515600560009054906101000a900460ff16151514151561134057600080fd5b61016d8161ffff1610151561135457600080fd5b80600a60006101000a81548161ffff021916908361ffff1602179055507fc87fe6acd9979eff9e80751f4b3f412a3ddb64ffbceba4449b814ac13c895e6e600a60009054906101000a900461ffff16604051808261ffff1661ffff16815260200191505060405180910390a150565b6000610e10600a60029054906101000a900460ff1660ff160261ffff166113e861193d565b6007540111156113fb5760019050611400565b600090505b90565b60095481565b600160009054906101000a900473ffffffffffffffffffffffffffffffffffffffff1673ffffffffffffffffffffffffffffffffffffffff163373ffffffffffffffffffffffffffffffffffffffff1614151561146557600080fd5b60011515600560009054906101000a900460ff16151514151561148757600080fd5b60001515600560019054906101000a900460ff1615151415156114a957600080fd5b600254421115156114b957600080fd5b62015180600a60009054906101000a900461ffff1661ffff160262ffffff1660025401421015156114e957600080fd5b6114f1612004565b610e10600a60029054906101000a900460ff1660ff160261ffff1660075410151561151b57600080fd5b6004543073ffffffffffffffffffffffffffffffffffffffff163111151561154257600080fd5b610e10600754610e10600a60029054906101000a900460ff1660ff160261ffff16036003540281151561157157fe5b046004543073ffffffffffffffffffffffffffffffffffffffff1631031015151561159b57600080fd5b600060045414156115ae57426009819055505b426006819055506001600560016101000a81548160ff0219169083151502179055507f26d645f96e690e49d9bc65a30c774d64625934b6406ee3c8d80dc489faa1c24c60065460075484846040518085815260200184815260200180602001828103825284848281815260200192508082843782019150509550505050505060405180910390a15050565b6000809054906101000a900473ffffffffffffffffffffffffffffffffffffffff1681565b6000600560019054906101000a900460ff1680156116885750600560009054906101000a900460ff165b8015611695575060065442115b905090565b60045481565b600a60009054906101000a900461ffff1681565b600560019054906101000a900460ff1681565b6000809054906101000a900473ffffffffffffffffffffffffffffffffffffffff1673ffffffffffffffffffffffffffffffffffffffff163373ffffffffffffffffffffffffffffffffffffffff1614151561172257600080fd5b6000600160009054906101000a900473ffffffffffffffffffffffffffffffffffffffff1673ffffffffffffffffffffffffffffffffffffffff1614151561176957600080fd5b60001515600560009054906101000a900460ff16151514151561178b57600080fd5b601e60ff168160ff161015156117a057600080fd5b80600a60036101000a81548160ff021916908360ff1602179055507fd27bfbf9535871d96ba008bae7fc8c8be30adf23e65aacd86ab5cc5919bc09d8600a60039054906101000a900460ff16604051808260ff1663ffffffff16815260200191505060405180910390a150565b6000809054906101000a900473ffffffffffffffffffffffffffffffffffffffff1673ffffffffffffffffffffffffffffffffffffffff163373ffffffffffffffffffffffffffffffffffffffff1614151561186857600080fd5b6000600160009054906101000a900473ffffffffffffffffffffffffffffffffffffffff1673ffffffffffffffffffffffffffffffffffffffff161415156118af57600080fd5b60001515600560009054906101000a900460ff1615151415156118d157600080fd5b806002819055506002546008819055506002546009819055507f43237d5f34f92acf597cf980da7559b2a21f5cec328358bdd8471584355daf826002546040518082815260200191505060405180910390a150565b60035481565b600062015180600854420311905090565b6000600560019054906101000a900460ff16151561195e5760009050611966565b600654420390505b90565b6000809054906101000a900473ffffffffffffffffffffffffffffffffffffffff1673ffffffffffffffffffffffffffffffffffffffff163373ffffffffffffffffffffffffffffffffffffffff161415156119c457600080fd5b6000600160009054906101000a900473ffffffffffffffffffffffffffffffffffffffff1673ffffffffffffffffffffffffffffffffffffffff16141515611a0b57600080fd5b60001515600560009054906101000a900460ff161515141515611a2d57600080fd5b60188160ff1611151515611a4057600080fd5b80600a60026101000a81548160ff021916908360ff1602179055507fdc79003f2601a0193e11ea1d3ce4461e85c8179c95cef41bc9fbd33bf1bba2e0600a60029054906101000a900460ff16604051808260ff1660ff16815260200191505060405180910390a150565b60006004543073ffffffffffffffffffffffffffffffffffffffff1631118015611b325750610e10611ada61192c565b611ae657600754611ae9565b60005b610e10600a60029054906101000a900460ff1660ff160261ffff160360035402811515611b1257fe5b046004543073ffffffffffffffffffffffffffffffffffffffff16310310155b905090565b60065481565b600042905090565b60025481565b6000809054906101000a900473ffffffffffffffffffffffffffffffffffffffff1673ffffffffffffffffffffffffffffffffffffffff163373ffffffffffffffffffffffffffffffffffffffff16141515611ba657600080fd5b60008060006101000a81548173ffffffffffffffffffffffffffffffffffffffff021916908373ffffffffffffffffffffffffffffffffffffffff160217905550565b60085481565b6000600560009054906101000a900460ff168015611c1a5750600560019054906101000a900460ff16155b8015611c27575060025442115b8015611c54575062015180600a60009054906101000a900461ffff1661ffff160262ffffff166002540142105b8015611c645750611c63611aaa565b5b8015611c9a5750610e10600a60029054906101000a900460ff1660ff160261ffff166007541080611c995750611c9861192c565b5b5b905090565b6000809054906101000a900473ffffffffffffffffffffffffffffffffffffffff1673ffffffffffffffffffffffffffffffffffffffff163373ffffffffffffffffffffffffffffffffffffffff16141515611cfa57600080fd5b6000600160009054906101000a900473ffffffffffffffffffffffffffffffffffffffff1673ffffffffffffffffffffffffffffffffffffffff16141515611d4157600080fd5b60001515600560009054906101000a900460ff161515141515611d6357600080fd5b60008273ffffffffffffffffffffffffffffffffffffffff1614151515611d8957600080fd5b600a60029054906101000a900460ff1660ff1681023073ffffffffffffffffffffffffffffffffffffffff163110151515611dc357600080fd5b81600160006101000a81548173ffffffffffffffffffffffffffffffffffffffff021916908373ffffffffffffffffffffffffffffffffffffffff160217905550806003819055506001600560006101000a81548160ff0219169083151502179055507f473368593cb79b78e80a262bcb34aa7cecf50668e75db96cb3d72e8f253fb7f4600160009054906101000a900473ffffffffffffffffffffffffffffffffffffffff1660035442604051808473ffffffffffffffffffffffffffffffffffffffff1673ffffffffffffffffffffffffffffffffffffffff168152602001838152602001828152602001935050505060405180910390a15050565b60008060011515600560009054906101000a900460ff161515141515611ee657600080fd5b60011515600560019054906101000a900460ff161515141515611f0857600080fd5b60065442111515611f1857600080fd5b6006544203600754019150610e10600a60029054906101000a900460ff1660ff160261ffff16821115611f6357610e10600a60029054906101000a900460ff1660ff160261ffff1691505b610e10600354600754840302811515611f7857fe5b049050806004600082825401925050819055507f302d5e56d3ee144bc0225a88eeec69307e090d3b6d15879c21d13f5ab99ab1a84260075484038360405180848152602001838152602001828152602001935050505060405180910390a1816007819055506000600560016101000a81548160ff021916908315150217905550612000612004565b5050565b62015180600854420311156120cf575b4260085410156120365762015180600860008282540192505081905550612014565b6201518060086000828254039250508190555060006007819055507f75582f59437da183ae931ad8938d3285156010d9c3e61e1abedfaddf30afaf736008546201518060085462015180600a60009054906101000a900461ffff1661ffff160262ffffff1660025401038115156120a957fe5b04604051808381526020018261ffff1661ffff1681526020019250505060405180910390a15b5600a165627a7a723058209127b54db1f64519a2d0dfcc4498b9b16d7e534410c0e55d4c52f648ca8d535a0029",
  "source": "pragma experimental \"v0.5.0\";\r\n\r\n////////////////////\r\n//   HOURLY PAY   //\r\n//    CONTRACT    //\r\n//     v 0.2      //\r\n////////////////////\r\n\r\n// The Hourly Pay Contract allows you to track your time and get paid a hourly wage for tracked time.\r\n//\r\n// HOW IT WORKS:\r\n//\r\n//  1. Client creates the contract, making himself the owner of the contract.\r\n//\r\n//  2. Client can fund the contract with ETH by simply sending money to the contract (via payable fallback function).\r\n//\r\n//  3. Before hiring someone, client can change additional parameters, such as:\r\n//\r\n//      - setContractDurationInDays(days) - The duration of the contract (default is 365 days).\r\n//\r\n//      - setDailyHourLimit(hours) - How much hours the Employee can work per day (default is 8 hours).\r\n//\r\n//      - setPaydayFrequencyInDays(days) - How often the Employee can withdraw the earnings (default is every 3 days).\r\n//\r\n//      - setBeginTimeTS(utcTimestamp) - Work on contract can be started after this timestamp (default is contract creation time).\r\n//                                       Also defines the start of Day and Week for accounting and daily limits.\r\n//                                       Day transition time should be convenient for the employee (like 4am),\r\n//                                       so that work doesn't cross between days,\r\n//                                       The excess won't be transferred to the next day.\r\n//\r\n//  4. Client hires the Employee by invoking hire(addressOfEmployee, ratePerHourInWei)\r\n//     This starts the project and puts the contract in a workable state.\r\n//     Before hiring, contract should be loaded with enough ETH to provide at least one day of work at specified ratePerHourInWei\r\n// \r\n//  5. To start work and earn ETH the Employee should:\r\n//\r\n//      invoke startWork() when he starts working to run the timer.\r\n//\r\n//      invoke stopWork() when he finishes working to stop the timer.\r\n//\r\n//    After the timer is stopped - the ETH earnings are calculated and recorded on Employee's internal balance.\r\n//    If the stopWork() is invoked after more hours had passed than dailyLimit - the excess is ignored\r\n//    and only the dailyLimit is added to the internal balance.\r\n//\r\n//  6. Employee can withdraw earnings from internal balance after paydayFrequencyInDays days have passed after BeginTimeTS:\r\n//      by invoking withdraw()\r\n//\r\n//    After each withdrawal the paydayFrequencyInDays is reset and starts counting itself from the TS of the first startWork() after withdrawal.\r\n//\r\n//    This delay is implemented as a safety mechanism, so the Client can have time to check the work and\r\n//    cancel the earnings if something goes wrong.\r\n//    That way only money earned during the last paydayFrequencyInDays is at risk.\r\n//\r\n//  7. Client can fire() the Employee after his services are no longer needed.\r\n//    That would stop any ongoing work by terminating the timer and won't allow to start the work again.\r\n//\r\n//  8. If anything in the relationship or hour counting goes wrong, there are safety functions:\r\n//      - refundAll() - terminates all unwithdrawn earnings.\r\n//      - refund(amount) - terminates the (amount) of unwithdrawn earnings.\r\n//    Can be only called if not working.\r\n//    Both of these can be called by Client or Employee.\r\n//      * TODO: Still need to think if allowing Client to do that won't hurt the Employee.\r\n//      * TODO: SecondsWorkedToday don't reset after refund, so dailyLimit still affects\r\n//      * TODO: Think of a better name. ClearEarnings?\r\n//\r\n//  9. Client can withdraw any excess ETH from the contract via:\r\n//      - clientWithdrawAll() - withdraws all funds minus locked in earnings.\r\n//      - clientWithdraw(amount) - withdraws (amount), not locked in earnings.\r\n//     Can be invoked only if Employee isn't hired or has been fired.\r\n//\r\n// 10. Client and Contract Ownership can be made \"Public\"/\"None\" by calling:\r\n//      - releaseOwnership()\r\n//     It simply sets the Owner (Client) to 0x0, so no one is in control of the contract anymore.\r\n//     That way the contract can be used on projects as Hourly-Wage Donations.\r\n//\r\n///////////////////////////////////////////////////////////////////////////////////////////////////\r\n\r\ncontract HourlyPay { \r\n\r\n    ////////////////////////////////\r\n    // Addresses\r\n\r\n    address public owner;           // Client and owner address\r\n    address public employeeAddress = 0x0;  // Employee address\r\n\r\n\r\n    /////////////////////////////////\r\n    // Contract business properties\r\n    \r\n    uint public beginTimeTS;               // When the contract work can be started. Also TS of day transition.\r\n    uint public ratePerHourInWei;          // Employee rate in wei\r\n    uint public earnings = 0;              // Earnings of employee\r\n    bool public hired = false;             // If the employee is hired and approved to perform work\r\n    bool public working = false;           // Is employee currently working with timer on?\r\n    uint public startedWorkTS;             // Timestamp of when the timer started counting time\r\n    uint public workedTodayInSeconds = 0;  // How many seconds worked today\r\n    uint public currentDayTS;\r\n    uint public lastPaydayTS;\r\n\r\n\r\n    ////////////////////////////////\r\n    // Contract Limits and maximums\r\n    \r\n    uint16 public contractDurationInDays = 365;  // Overall contract duration in days, default is 365 and it's also maximum for safety reasons\r\n    uint8 public dailyHourLimit = 8;               // Limits the hours per day, max 24 hours\r\n    uint8 public paydayFrequencyInDays = 3;       // How often can Withdraw be called, default is every 3 days\r\n\r\n    uint8 constant hoursInWeek = 168;\r\n    uint8 constant maxDaysInFrequency = 30; // every 30 days is a wise maximum\r\n\r\n\r\n    ////////////////\r\n    // Constructor\r\n\r\n    constructor() public {\r\n        owner = msg.sender;\r\n        beginTimeTS = now;\r\n        currentDayTS = beginTimeTS;\r\n        lastPaydayTS = beginTimeTS;\r\n    }\r\n\r\n\r\n    //////////////\r\n    // Modifiers\r\n\r\n    modifier onlyOwner {\r\n        require(msg.sender == owner);\r\n        _;\r\n    }\r\n\r\n    modifier onlyEmployee {\r\n        require(msg.sender == employeeAddress);\r\n        _;\r\n    }\r\n    \r\n    modifier onlyOwnerOrEmployee {\r\n        require((msg.sender == employeeAddress) || (msg.sender == owner));\r\n        _;\r\n    }\r\n\r\n    modifier beforeHire {\r\n        require(employeeAddress == 0x0);                        // Contract can hire someone only once\r\n        require(hired == false);                                // Shouldn't be already hired\r\n        _;\r\n    }\r\n\r\n\r\n    ///////////\r\n    // Events\r\n    \r\n    event GotFunds(address sender, uint amount);\r\n    event ContractDurationInDaysChanged(uint16 contractDurationInDays);\r\n    event DailyHourLimitChanged(uint8 dailyHourLimit);\r\n    event PaydayFrequencyInDaysChanged(uint32 paydayFrequencyInDays);\r\n    event BeginTimeTSChanged(uint beginTimeTS);\r\n    event Hired(address employeeAddress, uint ratePerHourInWei, uint hiredTS);\r\n    event NewDay(uint currentDayTS, uint16 contractDaysLeft);\r\n    event StartedWork(uint startedWorkTS, uint workedTodayInSeconds, string comment);\r\n    event StoppedWork(uint stoppedWorkTS, uint workedInSeconds, uint earned);\r\n    event Withdrawal(uint amount, address employeeAddress, uint withdrawalTS);\r\n    event Fired(address employeeAddress, uint firedTS);\r\n    event Refunded(uint amount, address whoInitiatedRefund, uint refundTS);\r\n    event ClientWithdrawal(uint amount, uint clientWithdrawalTS);\r\n    \r\n    ////////////////////////////////////////////////\r\n    // Fallback function to fund contract with ETH\r\n    \r\n    function () external payable {\r\n        emit GotFunds(msg.sender, msg.value);\r\n    }\r\n    \r\n    \r\n    ///////////////////////////\r\n    // Main Setters\r\n\r\n    function setContractDurationInDays(uint16 newContractDurationInDays) external onlyOwner beforeHire {\r\n        require(newContractDurationInDays < 365);\r\n        contractDurationInDays = newContractDurationInDays;\r\n        emit ContractDurationInDaysChanged(contractDurationInDays);\r\n    }\r\n    \r\n    function setDailyHourLimit(uint8 newDailyHourLimit) external onlyOwner beforeHire {\r\n        require(newDailyHourLimit <= 24);\r\n        dailyHourLimit = newDailyHourLimit;\r\n        emit DailyHourLimitChanged(dailyHourLimit);\r\n    }\r\n\r\n    function setPaydayFrequencyInDays(uint8 newPaydayFrequencyInDays) external onlyOwner beforeHire {\r\n        require(newPaydayFrequencyInDays < maxDaysInFrequency);\r\n        paydayFrequencyInDays = newPaydayFrequencyInDays;\r\n        emit PaydayFrequencyInDaysChanged(paydayFrequencyInDays);\r\n    }\r\n    \r\n    function setBeginTimeTS(uint newBeginTimeTS) external onlyOwner beforeHire {\r\n        beginTimeTS = newBeginTimeTS;\r\n        currentDayTS = beginTimeTS;\r\n        lastPaydayTS = beginTimeTS;\r\n        emit BeginTimeTSChanged(beginTimeTS);\r\n    }\r\n    \r\n    ///////////////////\r\n    // Helper getters\r\n    \r\n    function getWorkSecondsInProgress() public view returns(uint) {\r\n        if (!working) return 0;\r\n        return now - startedWorkTS;\r\n    }\r\n    \r\n    function isOvertime() external view returns(bool) {\r\n        if (workedTodayInSeconds + getWorkSecondsInProgress() > dailyHourLimit * 1 hours) return true;\r\n        return false;\r\n    }\r\n    \r\n    function hasEnoughFundsToStart() public view returns(bool) {\r\n        return ((address(this).balance > earnings) &&\r\n                (address(this).balance - earnings >= ratePerHourInWei * (dailyHourLimit * 1 hours - (isNewDay() ? 0 : workedTodayInSeconds)) / 1 hours));\r\n    }\r\n    \r\n    function isNewDay() public view returns(bool) {\r\n        return (now - currentDayTS > 1 days);\r\n    }\r\n    \r\n    function canStartWork() public view returns(bool) {\r\n        return (hired\r\n            && !working\r\n            && (now > beginTimeTS)\r\n            && (now < beginTimeTS + (contractDurationInDays * 1 days))\r\n            && hasEnoughFundsToStart()\r\n            && ((workedTodayInSeconds < dailyHourLimit * 1 hours) || isNewDay()));\r\n    }\r\n\r\n    function canStopWork() external view returns(bool) {\r\n        return (working\r\n            && hired\r\n            && (now > startedWorkTS));\r\n    }\r\n\r\n    function currentTime() external view returns(uint) {\r\n        return now;\r\n    }\r\n\r\n    function getBalance() external view returns(uint) {\r\n        return address(this).balance;\r\n    }\r\n\r\n    ////////////////////////////\r\n    // Main workflow functions\r\n\r\n    function releaseOwnership() external onlyOwner {\r\n        owner = 0x0;\r\n    }\r\n\r\n    function hire(address newEmployeeAddress, uint newRatePerHourInWei) external onlyOwner beforeHire {\r\n        require(newEmployeeAddress != 0x0);                     // Protection from burning the ETH\r\n\r\n        // Contract should be loaded with ETH for a minimum one day balance to perform Hire:\r\n        require(address(this).balance >= newRatePerHourInWei * dailyHourLimit);\r\n        employeeAddress = newEmployeeAddress;\r\n        ratePerHourInWei = newRatePerHourInWei;\r\n        \r\n        hired = true;\r\n        emit Hired(employeeAddress, ratePerHourInWei, now);\r\n    }\r\n\r\n    function startWork(string comment) external onlyEmployee {\r\n        require(hired == true);\r\n        require(working == false);\r\n        \r\n        require(now > beginTimeTS); // can start working only after contract beginTimeTS\r\n        require(now < beginTimeTS + (contractDurationInDays * 1 days)); // can't start after contractDurationInDays has passed since beginTimeTS\r\n        \r\n        checkForNewDay();\r\n        \r\n        require(workedTodayInSeconds < dailyHourLimit * 1 hours); // can't start if already approached dailyHourLimit\r\n\r\n        require(address(this).balance > earnings); // balance must be greater than earnings        \r\n\r\n        // balance minus earnings must be sufficient for at least 1 day of work minus workedTodayInSeconds:\r\n        require(address(this).balance - earnings >= ratePerHourInWei * (dailyHourLimit * 1 hours - workedTodayInSeconds) / 1 hours);\r\n        \r\n        if (earnings == 0) lastPaydayTS = now; // reset the payday timer TS if this is the first time work starts after last payday\r\n\r\n        startedWorkTS = now;\r\n        working = true;\r\n        \r\n        emit StartedWork(startedWorkTS, workedTodayInSeconds, comment);\r\n    }\r\n    \r\n    function checkForNewDay() internal {\r\n        if (now - currentDayTS > 1 days) { // new day\r\n            while (currentDayTS < now) {\r\n                currentDayTS += 1 days;\r\n            }\r\n            currentDayTS -= 1 days;\r\n            workedTodayInSeconds = 0;\r\n            emit NewDay(currentDayTS, uint16 ((beginTimeTS + (contractDurationInDays * 1 days) - currentDayTS) / 1 days));\r\n        }\r\n    }\r\n    \r\n    function stopWork() external onlyEmployee {\r\n        stopWorkInternal();\r\n    }\r\n    \r\n    function stopWorkInternal() internal {\r\n        require(hired == true);\r\n        require(working == true);\r\n    \r\n        require(now > startedWorkTS); // just a temporary overflow check, in case of miners manipulate time\r\n        \r\n        \r\n        uint newWorkedTodayInSeconds = workedTodayInSeconds + (now - startedWorkTS);\r\n        if (newWorkedTodayInSeconds > dailyHourLimit * 1 hours) { // check for overflow\r\n            newWorkedTodayInSeconds = dailyHourLimit * 1 hours;   // and assign max dailyHourLimit if there is an overflow\r\n        }\r\n        \r\n        uint earned = (newWorkedTodayInSeconds - workedTodayInSeconds) * ratePerHourInWei / 1 hours;\r\n        earnings += earned; // add new earned ETH to earnings\r\n        \r\n        emit StoppedWork(now, newWorkedTodayInSeconds - workedTodayInSeconds, earned);\r\n\r\n        workedTodayInSeconds = newWorkedTodayInSeconds; // updated todays works in seconds\r\n        working = false;\r\n\r\n        checkForNewDay();\r\n    }\r\n\r\n    function withdraw() external onlyEmployee {\r\n        require(working == false);\r\n        require(earnings > 0);\r\n        require(earnings <= address(this).balance);\r\n        \r\n        require(now - lastPaydayTS > paydayFrequencyInDays * 1 days); // check if payday frequency days passed after last withdrawal\r\n        \r\n        lastPaydayTS = now;\r\n        uint amountToWithdraw = earnings;\r\n        earnings = 0;\r\n        \r\n        employeeAddress.transfer(amountToWithdraw);\r\n        \r\n        emit Withdrawal(amountToWithdraw, employeeAddress, now);\r\n    }\r\n    \r\n    function fire() external onlyOwner {\r\n        if (working) stopWorkInternal(); // cease all motor functions if working\r\n        \r\n        hired = false; // fire\r\n        \r\n        emit Fired(employeeAddress, now);\r\n    }\r\n\r\n    function refundAll() external onlyOwnerOrEmployee {    // terminates all unwithdrawn earnings.\r\n        require(working == false);\r\n        require(earnings > 0);\r\n        uint amount = earnings;\r\n        earnings = 0;\r\n\r\n        emit Refunded(amount, msg.sender, now);\r\n    }\r\n    \r\n    function refund(uint amount) external onlyOwnerOrEmployee {  // terminates the (amount) of unwithdrawn earnings.\r\n        require(working == false);\r\n        require(amount < earnings);\r\n        earnings -= amount;\r\n\r\n        emit Refunded(amount, msg.sender, now);\r\n    }\r\n\r\n    function clientWithdrawAll() external onlyOwner { // withdraws all funds minus locked in earnings.\r\n        require(hired == false);\r\n        require(address(this).balance > earnings);\r\n        uint amount = address(this).balance - earnings;\r\n        \r\n        owner.transfer(amount);\r\n        \r\n        emit ClientWithdrawal(amount, now);\r\n    }\r\n    \r\n    function clientWithdraw(uint amount) external onlyOwner { // withdraws (amount), if not locked in earnings.\r\n        require(hired == false);\r\n        require(address(this).balance > earnings);\r\n        require(amount < address(this).balance);\r\n        require(address(this).balance - amount > earnings);\r\n        \r\n        owner.transfer(amount);\r\n\r\n        emit ClientWithdrawal(amount, now);\r\n    }\r\n}\r\n",
  "sourcePath": "D:\\Dropbox\\github\\hourlyPay\\contracts\\HourlyPay.sol",
  "compiler": {
    "name": "solc",
    "version": "0.4.23+commit.124ca40d.Emscripten.clang"
  },
  "schemaVersion": "2.0.0",
  "updatedAt": "2018-05-14T20:17:46.571Z"
}